:100000000C94D5040C94F2040C94F2040C94102B70
:100010000C94F2040C94F2040C94F2040C94F20488
:100020000C94F2040C94F2040C94D6270C94AE2891
:100030000C942A100C94F2040C94F2040C94F20424
:100040000C94F2040C94F2040C94F2040C94F20458
:100050000C94F2040C94B2270C94F2040C94F20465
:100060000C94F2040C94F2040C94F2040C94F20438
:100070000C94F2040C94F2040C94F2040C94F20428
:100080000C94F2040C94F2040C94F2040C94F20418
:100090000C94F2040C94F2040C94F2040C94F20408
:1000A0000C94F2040C94F2040C94F20400AF00AE31
:1000B0000000000000003E5B4F5B3E003E6B4F6B5C
:1000C0003E001C3E7C3E1C00183C7E3C18001C5729
:1000D0007D571C001C5E7F5E1C0000183C18000051
:1000E000FFE7C3E7FF00001824180000FFE7DBE785
:1000F000FF0030483A060E00262979292600407F65
:1001000005050700407F05253F005A3CE73C5A00A3
:100110007F3E1C1C0800081C1C3E7F0014227F220E
:1001200014005F5F005F5F0006097F017F000066CB
:1001300089956A0060606060600094A2FFA29400EC
:1001400008047E04080010207E20100008082A1CE5
:100150000800081C2A0808001E10101010000C1EB1
:100160000C1E0C0030383E383000060E3E0E0600E5
:1001700000000000000000005F0000000007000712
:100180000000147F147F1400242A7F2A12002313F6
:10019000086462003649562050000008070300003A
:1001A000001C224100000041221C00002A1C7F1C70
:1001B0002A0008083E080800008070300000080887
:1001C0000808080000006060000020100804020019
:1001D0003E5149453E0000427F4000007249494976
:1001E00046002141494D33001814127F1000274565
:1001F000454539003C4A4949310041211109070070
:10020000364949493600464949291E000000140074
:1002100000000040340000000008142241001414C3
:1002200014141400004122140800020159090600A8
:100230003E415D594E007C1211127C007F494949B4
:1002400036003E41414122007F4141413E007F490D
:10025000494941007F09090901003E4141517300AC
:100260007F0808087F0000417F4100002040413F97
:1002700001007F08142241007F40404040007F027F
:100280001C027F007F0408107F003E4141413E0078
:100290007F09090906003E4151215E007F091929A5
:1002A000460026494949320003017F0103003F40CF
:1002B00040403F001F2040201F003F4038403F008B
:1002C0006314081463000304780403006159494D62
:1002D0004300007F4141410002040810200000411A
:1002E00041417F00040201020400404040404000C0
:1002F0000003070800002054547840007F2844443D
:100300003800384444442800384444287F00385496
:100310005454180000087E0902001824241C780098
:100320007F080404780000447D4000002040403DE8
:1003300000007F102844000000417F4000007C0442
:10034000780478007C080404780038444444380079
:100350007C1824241800182424187C007C08040429
:10036000080048545454240004043F4424003C40F2
:1003700040207C001C2040201C003C4030403C00C1
:100380004428102844004C9090907C004464544CC5
:1003900044000008364100000000770000000041E2
:1003A000360800000201020402003C2623263C001D
:1003B000000000000000000000000000000000003D
:1003C000C0E0F0F8F81800C0F0FCFEFFFFFFFFFFF0
:1003D000FFFF7E00000000000000000080C0E0E0A1
:1003E000E0E0E0E0E0E0C0800000000080C0E0E08D
:1003F000E0E0E0E0E0E0C080000000E0E0C0C0E05D
:10040000E0E0E00000E0E0C0C0E0E0E0E0E0C0806C
:100410000000000080C0E0E0E0E0E0E0E0E0C0805C
:100420000000000000000000000000000000E0F0FC
:10043000F0F0E0ECEEF7F37020007C7C7C7E007E38
:100440007E7E7F7F7F000080C0E07E5B4F5BFEC0D2
:100450000000C000DCD7DEDEDED7DC00C00000001C
:10046000000000000000000000000000000000008C
:10047000000000000000000000F8FCFEFFE000FFAC
:10048000FFFFFFFFFF80FFFFFFFFFFFFFFFFFF1FDB
:100490000701000000000000000000FFFFFF8100D6
:1004A000000000000081C3C3C30000FFFFFF810004
:1004B000000000000081FFFFFF0000FFFFFF0100C0
:1004C0000000000000FFFFFF010000000001FFFF2F
:1004D000FF0000FFFFFF9D1C1C1C1C1C1C9DDFDF80
:1004E000DF000000000000000000000000000F1FFF
:1004F0003F7F7F7F7F7F3F1E0C001F1F1F3F003FFE
:100500003F3F7F7F7F00307B7F7830202030787FB7
:100510003B0003000F7F0F0F0F7F0F000300000051
:1005200000000000000000000000000000000000CB
:10053000000000000000000000030F1F3F3F3F3F8E
:100540001F1F3F3F7F7F7F3F3F1F3F7F7F7F7F7C1E
:100550007878381C0F000000000000000103070736
:10056000070707070707030100000000010307074B
:100570000707070707070301000000070707000038
:100580000000000000070707000000000000070748
:100590000700000001030707070707070707030114
:1005A000000000000000000000000000000000004B
:1005B000000000000000000000000000000000003B
:1005C000000000000000000000000000000000002B
:1005D000000000000000000000000000000000001B
:1005E000000000000000000000000000000000000B
:1005F00005010902A10185020901A10005091901EE
:1006000029081500250195087501810205010930A9
:1006100009311581257F95027508810609381581F4
:10062000257F950175088106050C0A38021581257C
:100630007F950175088106C0C005010980A101856B
:100640000319012AB700150126B70095017510811D
:1006500000C0050C0901A101850419012AA0021599
:100660000126A002950175108100C005010906A1AF
:10067000018506050719E029E7150025019508758C
:100680000181020507190029EF1500250195F07574
:100690000181020508190129059505750191029549
:1006A0000175039101C005010906A101050719E0C3
:1006B00029E7150025019508750181029501750846
:1006C00081010507190029FF150026FF0095067511
:1006D00008810005081901290515002501950575F2
:1006E000019102950175039101C009023B000201CD
:1006F00000A0FA0904000001030101000921110111
:1007000000012244000705810308000109040100DB
:10071000010300000009211101000122B6000705B4
:10072000820320000112010002000000085346016C
:10073000000100010200010C0343006F0072006E13
:100740000065000000100366006F006F0073007406
:100750000061006E0000000403090400DA0281FF5A
:10076000D9F1DB20A4A62EAF00A0C0D30000A1C801
:10077000D30000AED580A81F408D14200080818258
:10078000838485868788898A8B8C8D8E8F909192C1
:100790009394A0A1A2A3A4A5A6A7A8A9AAABACAD17
:1007A000AEAFB0B1B2B3B4C0C1C2C3C4C5C6C7C88E
:1007B000C9CACBCCCDCECFD0D1D2D3D4003A002C25
:1007C000206B007800556E6465660041646A75733D
:1007D00074005261697365004C6F776572004465FF
:1007E0006661756C74004C617965723A20006352E1
:1007F00014001A0008001500170022520400417E60
:10080000427E437E0A004C001D001B000600447E11
:10081000050000000000000021522C00497E2F003E
:10082000130012000C0018001C0034003300487E36
:10083000477E467E0B003100380037003600457E8B
:1008400011000000000000002A0028004A7E00007D
:1008500000000000520001004600010000005000AE
:1008600051004F00010000005700560067000100D2
:10087000190200000000000001002C00010000002F
:100880005500610060005F00E300000054005E005E
:100890005D005C00E108000062005B005A00590046
:1008A000000000000000000001002800010000001E
:1008B000000000004B0001000100010000004B7E21
:1008C0004E004C7E00000000000000000000000010
:1008D000000000000000000001002C0001000000EA
:1008E00000004200410040000000000000003F0006
:1008F0003E003D000000000000003C003B003A00CC
:100900000000000000000000010028000100635208
:1009100014001A00080015001700E100040016007A
:10092000070009000A002B001D001B00060019002B
:100930000500000000000000E2002C00497E2F00AE
:10094000130012000C0018001C00340033000F00CC
:100950000E000D000B00310038003700360010008B
:1009600011000000000000002A0028004A7E20201C
:1009700020206162636465666768696A6B6C6D6E8E
:100980006F707172737475767778797A3132333427
:10099000353637383930524542545F2D3D5B5D5C0A
:1009A000233B27602C2E2F20202011241FBECFEFA9
:1009B000DAE0DEBFCDBF11E0A0E0B1E0ECE9FBE59D
:1009C00002C005900D92AA38B107D9F725E0AAE830
:1009D000B1E001C01D92A83DB207E1F70E94F221EB
:1009E0000C942F2D0C940000A4E0B0E0EAEFF4E0AA
:1009F0000C944F2C20E030E0232B71F00E9400007B
:100A000069837A838B839C8369817A818B819C81C2
:100A10002496E2E00C946B2CE62FF0E0EA57FE4FB0
:100A20008081282F30E040E050E029833A834B83D7
:100A30005C83EACF20E030E0232B19F00E94000015
:100A40000895862F80958170089580E0FB010995B7
:100A500008959093BF048093BE0408959093C104B9
:100A60008093C004089521E030E002C0220F331FBC
:100A70008A95E2F78091C0049091C104822B932B58
:100A80000E942E05089521E030E002C0220F331F9E
:100A90008A95E2F7209530958091C0049091C10429
:100AA000822393230E942E050895983098F586306E
:100AB00088F5E82FF0E086E0989FE00DF11D112405
:100AC0008E2F877041E001C0440F8A95EAF783E0DA
:100AD000F695E7958A95E1F7EE0FFF1FEE0FFF1FE2
:100AE000EF56FB4F20E030E070E05191DF011197AD
:100AF000CB01022E02C0969587950A94E2F7817089
:100B000081958527842385278C932F5F3F4F243041
:100B1000310559F70895983078F5863068F5E82F53
:100B2000F0E086E0989FE00DF11D11249E2F977054
:100B300083E0F695E7958A95E1F7EE0FFF1FEE0F3C
:100B4000FF1FEF56FB4F40E050E080E0219130E086
:100B5000092E02C0369527950A94E2F721703327B3
:100B6000042E01C0220F0A94EAF7822B4F5F5F4FD9
:100B70004430510559F7089580E008958091C404E8
:100B80009091C304981301C008958F5F8770FACFC6
:100B9000982F90958091D70589238093D705089544
:100BA0007830B8F46630A8F48430B0F4E62FF0E082
:100BB00096E0799FE00DF11D112490E3899FE00DEF
:100BC000F11D1124EE0FFF1FE251F84F8591949112
:100BD000089580E090E0089581E0FCCF803E91058B
:100BE000D1F1C8F48133910509F47FC048F489320A
:100BF000910509F46FC08A32910509F47DC008950A
:100C000089339105E1F082389105C9F0853391056A
:100C100009F45BC00895843E9105D1F148F4823E09
:100C2000910531F1833E910541F181EE90E0089507
:100C3000863E9105C1F1873E9105E1F1089520912D
:100C4000BB042370211165C02091BC0423FF14C094
:100C500089E290E008952091BB0420FD43C03091CB
:100C6000BC0430FF09C024FF4EC080E090E008952E
:100C70002091BB0422FDF7CF08952091BB0422FDF3
:100C800045C03091BC0430FD44C024FFF5CFEDCF0A
:100C90002091BC0421FFF0CF8091BB0484FDE5CFFF
:100CA00087EE90E008952091BB0423FFE5CF24FD5B
:100CB000DCCFF6CF2091BB0423FD2EC03091BC04C5
:100CC00031FFE3CF84EE90E008952091BB0425FF2F
:100CD000D3CFBECF2091BB0425FD21C02091BC0401
:100CE00023FFCACF89E390E008952091BB0426FF3B
:100CF000C3CF8AE290E008952091BB0426FFBCCFC9
:100D000081E390E0089583EE90E0089582EE90E014
:100D1000089580EE90E0089586EE90E0089585E3D2
:100D200090E0AACF9091BB0492FF10C041E0282F21
:100D30002471243009F040E031E0282F2871283058
:100D400009F030E0431711F02CE0822793FF10C028
:100D500041E0282F2471243109F040E031E0282FB0
:100D60002871283109F030E0431711F02CE0822778
:100D70003091BC0430FF10C051E0282F2171213088
:100D800009F050E041E0282F2871283009F040E0B8
:100D9000541711F029E0822731FF10C041E0282FBD
:100DA0002171213109F040E031E0282F28712831EC
:100DB00009F030E0431711F029E0822794FD877E87
:100DC00008951F93CF93DF930E94EE05EC018115E8
:100DD00020E5920708F048C0811540E4940708F028
:100DE000C2C0803E9105E0F0811550E2950798F170
:100DF0008D2F8F710E949206182FCE0199270E9485
:100E0000EE05212F30E0322F222722273F71282B99
:100E1000392BE901D062CE01DF91CF911F91089566
:100E20008D3C910508F08BC0883A910560F4853AB5
:100E3000910508F076C08130910569F30497813AF5
:100E4000910548F305C0885A91094B9708F46CC086
:100E5000C0E0D0E0E0CF8F3F910511F008F071C005
:100E6000805E91090797EDCFC03682E5D80738F547
:100E7000C03422E5D20708F093C0C03242E5D4075F
:100E800038F0CF71D0E0DC2FCC27C16FD06AC3CF50
:100E90008C2FC11552E5D50708F06EC08F710E94E6
:100EA0009206282F30E084FD9CC085E0D695C7953A
:100EB0008A95E1F7CF703C2BE901D069ACCFC03CFB
:100EC00082E5D80708F5C03A22E5D20708F07EC0CF
:100ED000CE0180569245809708F0BACF8C2F869528
:100EE0008695877050E2859FC0011124C37021E070
:100EF00030E0A90102C0440F551FCA95E2F7EA018C
:100F0000C82BD92BDA6887CFCE01805C92458097B9
:100F100008F09ECFDC2FCC27CC27DF71C06FD06AC2
:100F20007ACFA497D06477CFC85AD0E0CC0FDD1F1A
:100F3000C05BDE4F0990D881C02DD4646CCFD065E2
:100F40006ACF8D2F0E949206182FCE0199270E94FA
:100F5000EE05212F30E0322F2227E901CC27DF7167
:100F6000C82BD92B58CF99270E94EE05CC27DF70CC
:100F7000C82BD92BD06A4FCF8695869540E2849FA7
:100F8000C0011124C37021E030E0A90102C0440F68
:100F9000551FCA95E2F7EA01C82BD92BDD683BCF74
:100FA0008C2F86958695877050E2859FC00111240D
:100FB000C37021E030E0A90102C0440F551FCA955B
:100FC000E2F7EA01C82BD92BDC6825CF8C2F8F7173
:100FD0000E949206C82FD0E0DC2FCC27CC27DF71EF
:100FE0001ACF94E0220F331F9A95E1F75ECFA0E06D
:100FF000B0E0EDEFF7E00C94482C8C01E090C004D9
:10100000F090C1048091BE049091BF04E82AF92AAF
:10101000CFE0D0E0CC24C394D12CC6010C2E02C06A
:10102000880F991F0A94E2F78E219F21892B49F49A
:10103000219798F7B12C8B2DCDB7DEB7E9E00C9452
:10104000642CBC2EB8018C2F0E94D0050E94E106B2
:10105000019771F3F0CF0F931F93CF93FC0185811C
:1010600000811181882391F0662381F0C8010E94DC
:10107000F707C82F682FC8010E945505B8018C2FAB
:101080000E94D005CF911F910F910895C8010E9431
:101090008B05C82FF3CFCF93DF93D82FC92F0E9492
:1010A000F7076D2F7C2F0E94D0050E94E106DF918B
:1010B000CF910895FC0184818823A1F080819181E2
:1010C0000E944B08282F92959F70963091F060F403
:1010D000925F9F70923030F481E0203F79F030F4DD
:1010E000283E30F080E004C09A5FF3CF243FD1F770
:1010F000089581E0283E18F0213FF9CF0895089522
:1011000080E00895F894E82FE295EF70F0E041A1B7
:101110008F7021E030E0B90102C0660F771F8A9519
:10112000E2F7CB01962F9095942391A392A1892B5E
:1011300082A378940895282F35EB2303C00111244E
:1011400097FF04C080589109892F089580589F4FB8
:10115000FBCF8091AF0480FF0DC06091370170E03C
:10116000660F771F60387105C0F561157105B9F11B
:10117000862F089581FF07C06091370184E0689F42
:10118000B0011124EFCF82FF04C06091370188E0E5
:10119000F6CF8091AE048823E9F0909136016091FA
:1011A000370170E0891730F093E0660F771F9A954A
:1011B000E1F7D8CF869F9001879F300D112483E0FF
:1011C000220F331F8A95E1F7692F70E0C9010E9451
:1011D000822CC8CF68E070E0CBCF8FE7089581E024
:1011E00008958091AF0480FF0CC06091350170E0DC
:1011F00075956795759567956115710561F1862FF0
:10120000089581FF06C06091350170E0759567957E
:10121000F3CF6091350170E082FD15C02091AD04DF
:101220002223B1F0909134016091350170E02917CB
:1012300050F4269FA001279F500D1124692F70E0C4
:10124000CA010E94822C60387105B0F28FE70895C0
:1012500061E070E0D4CF81E0089580915F0488233D
:1012600059F0E0918704F0918804309729F00190BB
:10127000F081E02D0995089580E00895A3E0B0E0A5
:10128000E4E4F9E00C944F2C9C018091DE019091F4
:10129000DF0182179307A1F03093DF012093DE0175
:1012A000E0918704F0918804309751F083E08983BE
:1012B0003B832A830084F185E02DCE0101960995B8
:1012C0002396E2E00C946B2CA3E0B0E0EAE6F9E0B0
:1012D0000C944F2C9C018091DC019091DD018217D0
:1012E0009307A1F03093DD012093DC01E0918704A6
:1012F000F0918804309751F084E089833B832A83FE
:101300000084F185E02DCE01019609952396E2E057
:101310000C946B2C90913A019923C1F09091BB04ED
:1013200097FF14C0E82FE695E695E695803FF8F420
:10133000F0E0EC56FE4F877021E030E001C0220F54
:101340008A95EAF78281822B82830895AEE8B1E024
:10135000EFEF90E02D91821751F0EF3F19F421113A
:1013600001C0E92F9F5F9630A9F7EF3F09F4089578
:101370000E2E000CFF0BE457FE4FE6CF90913A0182
:101380009923E1F09091BB0497FF18C0E82FE695F0
:10139000E695E695803FF0F4F0E0EC56FE4F87705E
:1013A00021E030E0A90102C0440F551F8A95E2F701
:1013B000CA0180959281892382830895EEE8F1E045
:1013C0009191891303C0DF0111971C9251E0E43918
:1013D000F507B1F70895A4E0B0E0E1EFF9E00C946F
:1013E0004F2C8FB7F89420914604309147044091D8
:1013F00048045091490429833A834B835C838FBF0F
:1014000069817A818B819C812496E2E00C946B2C1B
:10141000A4E0B0E0EEE0FAE00C944F2C80915F0481
:10142000882371F00E94EB0969837A838B839C8304
:1014300069817A818B819C812496E2E00C946B2CEB
:101440000E94EB0969837A838B839C83809161047A
:1014500090916204A0916304B091640429813A815F
:101460004B815C81280F391F4A1F5B1F29833A83F8
:101470004B835C83DDCFA6E0B0E0E1E4FAE00C94BE
:10148000462C6B017C01042FB52EA22E932EC11485
:10149000D104E104F10431F410E0812F2696EBE051
:1014A0000C94622C84E095E09E838D83AD81BE8197
:1014B0008C9181113AC09091E00181E0890F8823DD
:1014C00061F1E4E0F5E02081821739F13996B5E069
:1014D000EE35FB07C1F7182F1093E0018823E1F2E6
:1014E000ED81FE8110830E94EB09C60ED71EE81E17
:1014F000F91EAD81BE811196CD92DD92ED92FC92E6
:10150000149715960C9315971696BC9216971796E6
:10151000AC92179718969C92C0CF11E0180F8917BC
:1015200011F0812FCCCF80E0D7CFED81FE813996AD
:10153000FE83ED83EE55F54009F0B8CFADCF87E7D8
:1015400097E7909301088093000888E19AE00FB62E
:10155000F894A895809360000FBE90936000FFCF31
:101560008091DB010895FC019B018091D101909154
:10157000D2018617970740F0672B29F48091E80085
:101580008E778093E800C90140E0009741F4411153
:1015900006C08091E80082FF2FC080E0089520916E
:1015A000ED012223A9F12530A9F12091E80023FDC6
:1015B0002DC02091E80022FDECCF2091E80020FF13
:1015C000E4CF3091F3002091F200009719F0283019
:1015D000310558F041E02830310509F040E0209114
:1015E000E8002E772093E800D0CF41914093F1009E
:1015F00001972F5F3F4FE9CF8091ED01882341F0A4
:10160000853041F08091E80083FFC3CF81E00895E9
:1016100082E0089583E008958091CB0187FF13C095
:101620008091E80082FF06C08091E8008B7780936C
:10163000E80004C08091ED018111F2CF08958091FE
:10164000ED018823D9F38091E80080FFF8CF8091E5
:10165000E8008E77ECCF2091E4003091E50095E62C
:10166000A9018091EC008170882331F08091E8001D
:1016700080FF06C080E008952091E80022FD1BC095
:101680008091ED01882391F0853091F08091EB00FD
:1016900085FD10C02091E4003091E500421753070A
:1016A00001F391509111DCCF84E0089582E0089518
:1016B00083E0089581E00895E8EDF0E080818E7F79
:1016C00080831092E2001092DA001092E100A0EE06
:1016D000B0E08C9181608C9380818F77808319BC7E
:1016E000A7EDB0E08C918E7F8C9380818F7E80837C
:1016F0001092CA010895FC01AC014C5F5F4F8FEF5F
:1017000091E32191822728E030E087FF0BC0880F0A
:1017100089272150310921153105B9F7E417F5075B
:1017200081F70895880FF5CF982FE42FE2709093FA
:10173000E900891308C0762F242F50E0E11111C071
:1017400091E0980FF4CF7091EC002091ED00509152
:10175000F00021FD06C09F5F973049F78093E900B4
:1017600008953091EB003E7F3093EB003091ED0017
:101770003D7F3093ED003091EB0031603093EB0012
:101780007093EC002093ED005093F0002091EE0058
:1017900027FDE1CF0895A0E0B0E0E1EDFBE00C947F
:1017A000492CC8EDD0E088818F7E8883E7EDF0E09A
:1017B00080818160808384E082BF81E08093CA0160
:1017C00088818E7F888302EE10E0F80110821092EB
:1017D000DA0081EEC82ED12CF601108288818F7735
:1017E000888388818068888388818F7D888319BCFD
:1017F0001092ED011092C9011092EC011092C801F3
:1018000090EEE92EF12CF70180818B7F8083888117
:101810008160888342E060E080E00E94940BF601E2
:1018200080818E7F8083F8018081816080838081C8
:1018300088608083F70180818E7F808388818061CA
:101840008883CDB7DEB7E8E00C94652CE091C40442
:101850009091C30427E0E91302C080E00895AE2F01
:10186000B0E02E9FF0011124EB53FB4F3181361372
:1018700006C03081381303C03581341304C0FD0124
:101880003196E770E8CF81E008950F931F93CF93CF
:10189000DF93EB018A019091ED01943079F580930B
:1018A000E9008FEF9091E80095FD07C095ED9A95BE
:1018B000F1F7000081508111F5CF8091E80085FF9C
:1018C0001DC00E942B0B811114C08091E80085FD82
:1018D00006C08091E8008E778093E800F2CF88817F
:1018E0008093F100015011090115110511F02196A5
:1018F000ECCF8091E8008E778093E800DF91CF9164
:101900001F910F910895CF93DF93D82FC92F48E0EF
:1019100050E0682F792F81E00E94450C88E0ED2F80
:10192000FC2FA3EDB1E001900D928A95E1F7DF91D4
:10193000CF910895BC0140E250E082E00E94450C46
:101940000895BC0146E050E082E00E94450C0895F5
:10195000BC0143E050E082E00E94450C0895A0E005
:10196000B0E0E5EBFCE00C94472CF82EE92EB62E07
:10197000A72E8A018091C601CC24C394D12C8A3031
:1019800018F48AE0C82ED12CC1E0D0E06B2D7A2D5E
:101990008F2D9E2DF8010995811116C02196CC1628
:1019A000DD0694F0CC9FC001CD9F900D900D1124C9
:1019B00020E030E045E34A95F1F700002F5F3F4F0C
:1019C00028173907B9F7E2CFCDB7DEB7EAE00C94B4
:1019D000632C8091C2049091D705892B90913A0194
:1019E000992349F19091BB0497FF25C080939501FD
:1019F00040E250E067E674E084E991E00E94C72C81
:101A0000892BC1F080E2E4E9F1E0A7E6B4E00190BF
:101A10000D928A95E1F7E0918704F0918804309760
:101A200049F086E0809394010480F581E02D84E9FB
:101A300091E00995089580938C0148E050E069E8B1
:101A400074E08CE891E00E94C72C892B99F388E020
:101A5000ECE8F1E0A9E8B4E001900D928A95E1F795
:101A6000E0918704F0918804309721F30280F3819C
:101A7000E02D8CE891E0DDCF882321F00E94C8059D
:101A80000E94E90C0895882341F080959091C2044A
:101A900089238093C2040E94E90C0895882339F0B9
:101AA0009091D705892B8093D7050E94E90C089562
:101AB000882339F09091C204892B8093C2040E943C
:101AC000E90C0895A8E0B0E0E8E6FDE00C944F2CA6
:101AD00065EE7EEF80E090E00E94192D60E082E0EC
:101AE00090E00E94FB2C81E090E09093BF048093F3
:101AF000BE0461E083E090E00E94FB2C60E074E1B2
:101B000084E090E00E94192D60E086E090E00E9461
:101B1000FB2C60E087E090E00E94FB2C40E050E06E
:101B2000BA0188E090E00E940D2D60E083E290E031
:101B30000E94FB2C60E08CE090E00E94FB2C60E0B7
:101B40008DE090E00E94FB2C19821A821B821C827D
:101B50001D821E821F82188648E050E067E170E017
:101B6000CE0101960E94EB2C40E050E0BA018FE1DB
:101B700090E00E940D2D40E050E0BA018FE090E02F
:101B80000E940D2D40E050E0BA0183E190E00E94F8
:101B90000D2D2896E2E00C946B2CA8E0B0E0E3ED6C
:101BA000FDE00C944E2C40913E0450913F04609116
:101BB0004004709141042FB7F894809146049091AD
:101BC0004704A0914804B09149042FBF841B950B92
:101BD000A60BB70B11E084369105A105B10578F18C
:101BE0000E94080ADC01CB010296A11DB11D898368
:101BF0009A83AB83BC8380912D0190912E01865BEB
:101C00009B4F20912C01422F50E0253010F044E0F2
:101C100050E0BE016F5F7F4F0E94D42C83E090E0C4
:101C20000E94B62B182F882351F00E94EB09609375
:101C30003E0470933F048093400490934104812FAD
:101C40002896E3E00C946A2CEF92FF921F93CF93B7
:101C5000DF9300D000D00F92CDB7DEB77B0180E0DC
:101C600090E00E94B62B182F81111AC010E08091CD
:101C7000570490915804A0915904B0915A04F70167
:101C800080839183A283B383812F0F900F900F9055
:101C90000F900F90DF91CF911F91FF90EF900895DB
:101CA00080911701482F50E0882311F041E050E067
:101CB0006091180170911901665B7B4FCE0105960A
:101CC0000E94D42C40915B0450915C0460915D04AF
:101CD00070915E042FB7F894809146049091470468
:101CE000A0914804B09149042FBF841B950BA60B0B
:101CF000B70B84369105A105B10538F48BE494E067
:101D00000E947B0B9D818917B9F181E090E00E94D0
:101D1000B62B882309F4AACF80911F01482F50E0E9
:101D2000853010F044E050E0609120017091210175
:101D3000665B7B4FCE0101960E94D42C8BE494E02D
:101D40000E947B0B9D81891391CF0E94EB096093C8
:101D50005B0470935C0480935D0490935E048981BE
:101D60009A81AB81BC818093570490935804A093CF
:101D70005904B0935A047BCF80914B0490914C044A
:101D8000A0914D04B0914E0489839A83AB83BC83A8
:101D9000E6CFCF93DF93D82FC92F44E050E06FE414
:101DA00074E00E94C72C9C0140914204509143046E
:101DB0006091440470914504EFB7F8948091460413
:101DC00090914704A0914804B0914904EFBF841B4F
:101DD000950BA60BB70B84369105A105B10510F440
:101DE000232B11F18091250190912601865B9B4F59
:101DF00020912401422F50E0253010F044E050E0C3
:101E00006D2F7C2F0E94D42C82E090E00E94B62B94
:101E1000882359F00E94EB096093420470934304B5
:101E2000809344049093450481E0DF91CF9108951D
:101E3000AB0124E630E0BC0188E70E94CD299C017B
:101E400081E0232B09F080E00895809134048823F9
:101E500069F080913104882349F062E070E08EEAF5
:101E600090E00E94180F8111109231040895A4E0AF
:101E7000B0E0EDE3FFE00C944F2C80913404882314
:101E8000F9F00E94EB09DC01CB01805A9541AF4F7C
:101E9000BF4F80932D0490932E04A0932F04B093F2
:101EA00030048091310481110BC062E070E08CEA53
:101EB00090E00E94180F882319F081E0809331048C
:101EC0002496E2E00C946B2CCF93DF93682F81E093
:101ED0006A3019F06D3031F480E00E94E40FDF9138
:101EE000CF9108958091FF019091000226E0FC01BE
:101EF000A0ECB1E001900D922A95E1F7603E08F464
:101F000058C026E0FC0111922A95E9F7C091FF0123
:101F1000D091000246E050E0BE0180EC91E00E94CA
:101F2000C72C9E0129523240892B41F1C90145E05D
:101F3000969587954A95E1F741E050E0BA0102C0D5
:101F4000660F771F8A95E2F7CB0160912B047091A1
:101F50002C04862B972BB9016B5F7F4FE5E07695BC
:101F60006795EA95E1F702C0440F551F6A95E2F7BD
:101F7000842B952B90932C0480932B042A5F3F4F46
:101F800040910102642F70E0C9010E942B2C481B74
:101F9000463010F4240F311D211572E0370710F080
:101FA00020E030E0275D3D4F309300022093FF0199
:101FB00096CFF6E06F9FB001112460557F4F46E049
:101FC00050E00E94BE2CA2CFCF93382FE091FF01AA
:101FD000F0910002E952F24020910102622F70E07C
:101FE000CF010E942B2C281B822F332361F066E047
:101FF0000E94762CC82FC15010F4CF91089580E232
:102000000E94640FF8CF9F01280F311D2115324027
:1020100018F080E0E0E0F0E08E0F9F2F911D875DCB
:102020009D4F909300028093FF01E7CFCF93DF9302
:10203000EC01FE018491811103C0DF91CF910895DD
:102040000E94640F2196F5CF0E94161081E00E9435
:10205000E40F08951F921FB61F9211248F939F9330
:10206000AF93BF938091EB01811113C0809146041F
:1020700090914704A0914804B09149044196A11D54
:10208000B11D8093460490934704A0934804B093F5
:102090004904BF91AF919F918F911F901FBE1F90D8
:1020A00018952FB7F8948091460490914704A09119
:1020B0004804B09149042FBF08950E945110209107
:1020C000B2043091B304232B222321F080933704F0
:1020D000909338042091B4043091B504232B22232B
:1020E00021F08093350490933604E0918704F091B9
:1020F0008804309749F082E08093B0040680F7812D
:10210000E02D80EB94E009950895662309F44BC017
:10211000E3E3E80FE33150F4F0E0EF5CF24D0C94B0
:10212000B82C0E94A90881958093B3040E945D1089
:1021300008950E94A908F8CF0E94A908819580936C
:10214000B204F4CF0E94A908FACF0E94F10880934C
:10215000B404ECCF0E94F1088195F9CF0E94F108F8
:1021600081958093B504E2CF0E94F108FACF815D9A
:10217000990B21E030E001C0220F8A95EAF78091A7
:10218000B104822B8093B104D1CF8091AF048160E0
:102190008093AF04CBCF8091AF048260F9CF809160
:1021A000AF048460F5CF4091B2048D3C59F4809126
:1021B000B30487FF0DC01092B304442359F4109266
:1021C000AE0408C08E3C81F48091B30418169CF3D1
:1021D000442381F08091B4049091B504892B81113E
:1021E000A5CF1092AD04A2CF8F3C41F447FFF0CFB2
:1021F0001092B2048091B3048823E0CF803D19F49B
:102200001416B4F3E5CF9091B404893D29F419165E
:10221000FCF61092B404DCCF8A3D19F497FFD8CFB6
:10222000F8CF9091B5048B3D29F497FFD1CF109250
:10223000B504CECF8C3D19F41916CCF3C9CF9FE26B
:10224000980F983090F4815D990B21E030E0B9014E
:1022500002C0660F771F8A95E2F7CB0180959091B7
:10226000B10489238093B104B3CF8D3D31F48091C3
:10227000AF048E7F8093AF04ABCF8E3D21F480916D
:10228000AF048D7FF7CF8F3D09F0A2CF8091AF04CF
:102290008B7FF0CF882381F19CEF980F913A28F43F
:1022A0000E94BE090E94E90C089590E2980F9830B0
:1022B00050F4877091E001C0990F8A95EAF7892F51
:1022C0000E94C805EFCF9BE5980F933028F480E07B
:1022D00090E00E943E09089598E5980F9B3128F4FC
:1022E00080E090E00E946409089593E3980F933191
:1022F00018F460E00E94851008951092D70580912F
:102300003A01882339F18091BB0487FF23C0E6E9B5
:10231000F1E08EE1DF011D928A95E9F780E090E01F
:102320000E943E0980E090E00E9464091092C2047D
:102330000E94E90C86E0E0EBF4E0DF011D928A9553
:10234000E9F71092AE041092AD041092AF040E940F
:102350005D100895EEE8F1E086E0DCCF0E947D118B
:102360002FEF84E39CE0215080409040E1F700C0D3
:10237000000088E19AE00FB6F894A8958093600079
:102380000FBE90936000FFCFEBEFE80FEF3308F044
:1023900070C0F0E0EC5BF24D0C94B82C0E94620D22
:1023A00081E008958091F601807F8093F60181E0BD
:1023B0008093AC04F5CF0E947D112FEF44E35CE0E5
:1023C000215040405040E1F700C000000E949F0AA9
:1023D0009091F601892F8E7F90FF81608093F601A6
:1023E00080FDDECF817F8093F601DACF9091F601F8
:1023F000892F8D7F91FF82608093F60181FFD0CF7E
:102400008091F6018160EFCF9091F601892F8B7F4B
:1024100092FF84608093F60182FDF2CFC1CF90914C
:10242000F601892F877F93FF88608093F60183FDF3
:10243000E7CFB6CF0E947D119091BB04892F97FB07
:1024400087F980588093BB04ABCF81E090E00E9475
:1024500029050E947D11A4CF895321E030E0A90114
:1024600002C0440F551F8A95E2F7CA01F0CF8D5183
:10247000F4CF80E00895CF93C82F882309F450C08B
:102480008CEF8C0F813A08F0E5C08091AC0481306C
:10249000A1F1823009F449C0811144C08091D7056F
:1024A000823229F48C2F0E94C411811139C080918D
:1024B0003A01882309F4BEC08091BB0487FFBAC0EB
:1024C000EC2FE695E695E695F0E0EC56FE4F82811E
:1024D00090E04C2F477021E030E002C0220F331F04
:1024E0004A95E2F782239323892B09F4ADC08C2F00
:1024F0000E94BE090E94E90CA7C08091D7058232D4
:1025000089F2C43179F040F4CB3051F0C03179F622
:1025100082E08093AC0404C0C93221F0C83339F69C
:10252000CF9108951092AC04C2CFCF3409F46FC09C
:10253000B0F4C83290F4CE3140F5C73009F449C048
:10254000C43171F78091AB04882351F31092AB042E
:102550001092AA041092A904E3CFC932F2CFC13578
:1025600009F44AC091E0C23509F452C0C035C1F641
:10257000E091A904F091AA04309791F280818A50E9
:10258000990B97FF55C01082CBCFCD51C093AB04B0
:10259000C430C9F078F488E391E0C23031F087E3C9
:1025A00091E0C33011F089E391E09093AA04809305
:1025B000A904B6CFC53051F084E391E0C630A9F349
:1025C0001092AB04ADCF86E391E0EFCF85E391E0CD
:1025D000ECCF81E08093390184E1809338018AE077
:1025E000809337018EE18093360188E08093350136
:1025F00088E28093340194CFE091A904F091AA0479
:10260000309709F48DCF80818150990BBACF9AE031
:10261000E091A904F091AA04309709F481CF808158
:10262000890F9927991F8F3F910511F00CF08FEFBB
:10263000808376CFEEE8F1E08191C81709F457CF97
:1026400021E0E439F207C1F78C2F0E948A090E9429
:10265000E90C66CF80E28C0F883068F4C77081E0A7
:1026600090E001C0880FCA95EAF7C091D705C82B42
:10267000C093D705ECCF8BE58C0F833038F42C2F2B
:102680002452330BC9010E943E094ACFE8E5EC0F02
:10269000EB3150F4F0E0EE0FFF1FE05BFE4F808166
:1026A00091810E9464093CCF83E38C0F833108F051
:1026B00037CF61E08C2F0E94851032CF0F931F938C
:1026C000CF93DF93EC0100E010E0C99711F400E52F
:1026D00010E068E57DE0CE010E9425058C2F0E9468
:1026E0003B120115110569F48C2F0E944A1163E415
:1026F0007DE0CE010E942505DF91CF911F910F91C2
:1027000008958FE99FE00197F1F700C000000150A4
:102710001109E7CFFC01E154FE47EC30F10560F40C
:10272000ED57F24D0C94B82C623039F0633049F01B
:1027300086E190E0613089F0089584E00E944E0DBA
:10274000089584E00E943C0D0895623049F06330A2
:1027500049F087E090E0613079F70E945E13ECCF9A
:1027600080E4ECCF80E4EECF623039F0633039F0B2
:1027700089E090E0613001F7F0CF82E0DFCF82E0C6
:10278000E1CF623039F0633039F089E190E06130B7
:1027900099F6E3CF88E0D2CF88E0D4CF6230D1F38E
:1027A0006330D1F380E190E0613031F6D6CF623012
:1027B00021F3633021F38DE090E0613009F0BCCF6C
:1027C000CCCF623069F2633069F28EE090E0613024
:1027D00009F0B2CFC2CF623009F4AFCF633009F451
:1027E000B0CF8FE090E0613009F0A6CFB6CF623075
:1027F00041F0633041F089E290E0613009F09CCF14
:10280000ACCF81E09BCF81E09DCF6230D1F36330CC
:10281000D1F38BE290E0613009F08ECF9ECF623031
:1028200009F48BCF633009F48CCF8AE490E06130F7
:1028300009F082CF92CF623009F49FCF633009F460
:102840009ECF613009F078CF8DE490E086CF1F9362
:10285000CF93DF93EC01198519866A87633009F4F9
:10286000B0C008F043C0613009F488C0623009F498
:102870009FC0E0915E052FE535E080E0E81711F19B
:10288000C217D307E1F52E2F2150330BA9019CE08D
:10289000282F30E024173507B4F1E150E0935E05AE
:1028A0003CE0E39FF0011124E15AFA4F11821082BB
:1028B0001282138214821582168210861782118664
:1028C00012861386112371F0E4E0F5E0808118137D
:1028D00088C010821182128213821482168215829D
:1028E00010861782DF91CF911F9108958881998179
:1028F000643009F06FC062E00E948A13E3CF8F5FFB
:10290000245F3F4FBBCFB9016F5F7F4F969FE001C0
:10291000979FD00D1124C15ADA4F68817981929F17
:10292000D001939FB00D1124A15ABA4F11967C93F8
:102930006E932A8112962C9312972B8113962C93C7
:1029400013972C8114962C9314972D813E81169603
:102950003C932E9315972F81388518963C932E9390
:102960001797298519962C9319972A851A962C93CF
:102970001A972B851B962C938F5F8ACF8091D70552
:102980008A8360E0888199810E948A138A81809578
:102990009091D70589238B8360E0888199810E947B
:1029A000F4049E0148EF54E10E943B0A89878ACFD4
:1029B00061E0888199810E94F4049E0140E055E124
:1029C000F3CF62E0888199810E94F4049E014CE17A
:1029D0005CE1EACF63E00E94F4049E0140E35CE125
:1029E000E3CF399685E0EE35F80709F06FCF7ACF5F
:1029F000CA0164E00E94271460E070E0CB010895F2
:102A00001F93CF93DF93EA0161E0888199810E944F
:102A10001A05882319F11091D70560E08881998102
:102A20000E941A05882329F18A81811711F1809368
:102A3000D7050E94E90C61E0888199810E948A1380
:102A40008091D70518278A8118271093D7058B8185
:102A50000E94C8050E94E90C1A821B8260E0CE0128
:102A60000E94271460E070E0CB01DF91CF911F91AD
:102A7000089561E0888199810E948A13EFCFAAE2CC
:102A8000B0E0E5E4F5E10C944E2C8BEC91E0FC0118
:102A900001962091F100208321E0833D9207B9F750
:102AA0008091CC01893009F456C0C8F4823009F411
:102AB000B2C0833009F481C0813071F18091E800A7
:102AC00083FFE6C08091CB019091CC019A3008F051
:102AD000DFC0E92FF0E0E157F24D0C94B82C8A30BA
:102AE00009F488C08B3051F78091CB01813231F7E6
:102AF0008091CF019091D001892B01F78091E8005E
:102B0000877F8093E8000E940C0B8091CD01809319
:102B10003A010E947D11D2CF8091CB01813A71F6AA
:102B20008091E800877F8093E8008091CF019091A9
:102B3000D001892B61F060E080E090E070E00E94BD
:102B4000B30A8091E8008B778093E800B7CF68E004
:102B500083ED91E0F3CF8091CB01813209F0AECFCC
:102B60008091CF019091D001029708F0A7CF80917A
:102B7000E800877F8093E8008091E80082FF18C01A
:102B80009091F3008091F200029731F48091F1006E
:102B9000813011F0863021F48091F1008093DB01C7
:102BA0008091E8008B778093E8000E940C0B86CF21
:102BB0008091ED018111E0CF81CF8091CB01813AED
:102BC00009F07CCF8091CF019091D001892B09F041
:102BD00075CF8091E800877F8093E8008091E800BE
:102BE00080FFFCCF80913A018093F1008091E80052
:102BF0008E77D9CF8091CB01813209F05FCF809160
:102C0000E800877F8093E8000E940C0B8091CE0142
:102C10008093C70153CF8091CB01813A09F04ECF09
:102C20008091E800877F8093E8008091E80080FF32
:102C3000FCCF8091C701D8CF803889F0823841F528
:102C40008091CF018F70873018F58093E9008091D3
:102C5000EB0085FB882780F91092E90006C080917F
:102C6000C8019091EC01911182609091E800977FEA
:102C70009093E8008093F1001092F1008091E800B9
:102C80008E7723C0811116C08091CD01813011F162
:102C90008091E80083FF0AC08091E800877F8093DD
:102CA000E8008091EB0080628093EB00AA96E3E05D
:102CB0000C946A2C823061F78091CD01882389F0D1
:102CC0001092E9008091E800877F8093E8000E94DD
:102CD0000C0BDECF81E0933009F080E08093EC01B3
:102CE000EFCF8091CF018F702FEF280F263080F625
:102CF0008093E9002091EB0020FFE2CF933031F484
:102D00008091EB0080628093EB00DACF9091EB0032
:102D100090619093EB0021E030E0A90102C0440FE4
:102D2000551F8A95E2F74093EA001092EA008091DD
:102D3000EB008860E8CF8111ABCF1091CD011F77F8
:102D40008091E3008078812B8093E3008091E800FC
:102D5000877F8093E8000E940C0B8091E80080FF41
:102D6000FCCF8091E30080688093E30083E0111141
:102D700001C082E08093ED018BCF8058823008F053
:102D800087CF4091CD015091CE014C3D83E0580753
:102D900099F583E08A838AE289834FB7F894DE014C
:102DA000139620E03EE051E2E32FF0E0509357000D
:102DB000849120FF03C082958F703F5F8F708A30AF
:102DC000C8F0895C90E08D939D932F5F243161F76B
:102DD0004FBF8091E800877F8093E8006AE270E04F
:102DE000CE0101960E94B30A8091E8008B77809310
:102DF000E8004ECF805DE6CF2091CF013091D00129
:102E0000852F99278330910509F160F48130910570
:102E100009F472C0029709F03BCF8BE390E0EAEE31
:102E2000F6E029C08132910509F45AC0829709F071
:102E30002FCF2115310509F469C02130310509F082
:102E400027CF86EB90E0E0EFF5E015C0CA019927A7
:102E50004130B1F18230910509F43AC0892B09F073
:102E600017CFE7E5F7E0E4918E2F90E0E7E5F7E094
:102E7000009709F40DCF2091E800277F2093E80008
:102E80002091D1013091D2018217930708F49C015F
:102E900040E02115310509F03EC041113CC0809150
:102EA000E80082FDA1CF8091ED01882309F49CCF39
:102EB000853009F499CF8091E80083FFF0CF94CF5B
:102EC000E5E4F7E0E4918E2F90E0E5E4F7E0D0CF81
:102ED000E7E3F7E0E4918E2F90E0E7E3F7E0C8CF77
:102EE0002115310571F02130310509F0D1CE89E08D
:102EF00090E0E5E1F7E0BFCF82E190E0E5E2F7E0C6
:102F0000BACF89E090E0ECEFF6E0B5CF84E490E052
:102F1000E6EAF6E0B0CF8091ED01882309F464CFB2
:102F2000853009F461CF8091E80083FD5DCF809109
:102F3000E80082FDB4CF8091E80080FFAACF909195
:102F4000F3008091F2002115310519F088309105C8
:102F500050F041E0089709F040E08091E8008E775A
:102F60008093E80096CF44914093F1003196215030
:102F700031090196E8CF803809F08ACE8091E800C7
:102F8000877F8093E8008091C9018093F10076CE1D
:102F900081117ECE1091CD01123008F079CE809152
:102FA000E800877F8093E8001093C9010E940C0B12
:102FB000112381F084E08093ED0142E061EC81E037
:102FC0000E94940B42E261EC82E00E94940B80919B
:102FD000ED015ECE8091E30087FDECCF81E0EBCF89
:102FE0009C014FB7F8948091460490914704A091BA
:102FF0004804B09149044FBF821B930B08950F936F
:103000001F93CF93DF93C62FD42F122F8823A9F0BD
:103010006093BA040E9451109093BF018093BE0147
:10302000C77081E001C0880FCA95EAF70E944E0D73
:10303000DF91CF911F910F9108958091BA04681389
:1030400038C08091BE019091BF010E94F017883C6A
:10305000910578F5CD130FC0812F0E943B12812F6F
:103060000E944A11D77081E001C0880FDA95EAF713
:103070000E943C0DDDCFC77001E0802F01C0880F9A
:10308000CA95EAF70E943C0D80E28D0F883050F41B
:103090008D2F877001C0000F8A95EAF7802F0E945C
:1030A0004E0DDACF812F0E943B12812F0E944A11D0
:1030B000BFCFC77081E001C0880FCA95EAF7D8CFAB
:1030C000EF92FF920F931F93CF93DF938C01FC013C
:1030D0008481882309F4AFC061E0C8010E942B08F5
:1030E000EC01F8018581882301F181818093B90485
:1030F00080818093B80480E280933B01D093B70431
:10310000C093B604CE0190528115904230F5F8017B
:103110008681803150F0FE01FF27ED33F10528F460
:10312000E259F64FE491E0933B01F12C8CE0E82E5C
:1031300080915E05F81610F1F801458141112CC00F
:10314000F8018581FE01E851FC47E730F10508F000
:103150008EC0E756F24D0C94B82CCE0190548115D8
:103160009041A8F2CE019A9581159F41A0F2CE011F
:10317000805A92458097C8F2FE01CFCFEF9CA00104
:103180001124415A5A4FB801CE010E946C1C882369
:1031900009F451C0F394CCCF9E0121543E472C300A
:1031A000310570F62FE535E090E0891334C0FCE07E
:1031B0008F9FA0011124415A5A4FFA01D183C08335
:1031C0008F5F80935E05B801CE010E946C1C88233E
:1031D00091F1F8018581882309F44FC11092BA0456
:1031E000C1304CE7D40709F446C1C3305CE7D507CA
:1031F00009F43BC1C115DC4709F05DC10E947D1196
:103200009FEFE4E3FCE09150E040F040E1F700C0C4
:1032100000000E949F0A245F3F4FF9013C976081A4
:103220007181C617D70719F19F5FBFCF26E241EE24
:1032300061EE0E94FF17CDB7DEB7E6E00C94672C75
:1032400027E245EE65EEF5CF26E241EE60EEF1CFE6
:1032500027E245EE64EEEDCF26E241EE62EEE9CFE5
:1032600027E245EE66EEE5CF28E241E0EBCF4111E3
:103270000CC0C631DC4709F000C18091BD0481114A
:10328000F2C089E20E94BE09E9C01092BA04CE01E0
:103290009057839708F0CFC084E090E00E94E52C1F
:1032A0009093BC048093BB04FE01E150F047E232EE
:1032B000F10520F4E056F24D0C94B82C8091BB043B
:1032C00081608093BB046091BB047091BC0484E076
:1032D00090E00E94192D0E947D11ADCF8091BC0419
:1032E00088608093BC04EFCF8091BB048260E9CFFB
:1032F0008091BB048460E5CF8091BB048860E1CFFE
:103300008091BC048160EDCF8091BC048260E9CFE4
:103310008091BB048061D5CF8091BB048062D1CF06
:103320008091BB048064CDCF0E947D118091BB044D
:103330008068C7CF8091BB048C60C3CF8091BC04F0
:103340008360CFCF8091BB048E7FBBCF8091BC04C4
:10335000877FC7CF8091BB048D7FB3CF8091BB04A3
:103360008B7FAFCF8091BB04877FABCF8091BC04B4
:103370008E7FB7CF8091BC048D7FB3CF8091BB048B
:103380008F7E9FCF8091BB048F7D9BCF8091BB04AC
:103390008F7B97CF0E947D118091BB048F7791CF57
:1033A0008091BB04837F8DCF8091BC048C7F99CFAB
:1033B0008091BB0482FB992790F921E0922790FB32
:1033C00082F990FB83F97DCF8091BC04982F909572
:1033D00091708E7F892B90FB81F983CF9091BB04F4
:1033E000892F8F7B96FF80646CCF0E947D11909116
:1033F000BB04892F97FB87F9805863CF61E08EE08B
:1034000090E00E94FB2C5FCF60E0F9CF9091BB046D
:10341000892F8F7E94FF806154CF9091BB04892FB8
:103420008E7F90FF81604DCF9091BC04892F877F64
:1034300093FF886056CFC6312CE7D20709F0D0CE73
:103440008091D7058A7A91E0811101C090E0909334
:10345000BD04882331F085E30E948A090E94E90CAB
:10346000EACE89E2F9CF85E30DCF6FEF7FEF80E001
:1034700090E00E94192D0E94AE11F801E080F180C9
:10348000C7010E948B05C82FB7018C2F0E94D00561
:103490000E94E106C82FF8016581268122952F70D0
:1034A000E92FE295EF70903C08F042C0F0E0EE5357
:1034B000F24D0C94B82CF801E080F180C7010E9415
:1034C000F707C82F682FC7010E945505DDCFD92FF8
:1034D000DF70903110F0D295D07F6623C9F0DD23E4
:1034E00069F080E28C0F883010F0C1110BC0809120
:1034F000D7058D2B8093D7050E94E90C8C2F0E9455
:103500003B1216C08091C2048D2B8093C204F4CF6D
:103510008C2F0E944A11DD2359F080E28C0F8830F5
:1035200010F0C1110AC08D2F0E94C8050E94E90C3D
:1035300060E0C8010E942B087ECED0958091C20425
:103540008D238093C204F2CF892F8F70907F9032A9
:1035500011F08295807FC13061F4662329F0233019
:1035600038F70E944E0DE4CF223010F70E943C0D38
:10357000DFCF662319F02223A1F3C0CF2223B1F3BA
:10358000C93349F4FFEF27EE43E0F15020404040BB
:10359000E1F700C000008C2F0E944A11C9CF892F8B
:1035A000869586958370882359F0813009F68C2F93
:1035B0009370611102C080E090E00E946409B8CF6E
:1035C0008C2F9370611102C080E090E00E943E0950
:1035D000AFCF0E948510ACCF892F8370811145C079
:1035E000611130C08C2F829586958770880F880F67
:1035F0002C2F2F7030E0082E02C0220F331F0A94A8
:10360000E2F740E050E0C4FF09C04FE050E002C0E4
:10361000440F551F8A95E2F74095509596959695DB
:1036200093709230C1F0933091F06091BE0470912C
:10363000BF04913051F0C901842B952B8623972329
:103640000E9429050E942D0973CF262B372BC90113
:10365000842B952BF5CFC901842B952B2091BE048B
:103660003091BF0482279327EBCF662399F190FF17
:10367000E9CF8C2F829586958770880F880F2C2F25
:103680002F7030E0082E02C0220F331F0A94E2F799
:1036900040E050E0C4FF09C04FE050E002C0440FDA
:1036A000551F8A95E2F7409550959695969593709B
:1036B0009230D1F09330A1F06091C0047091C104B8
:1036C000913061F0C901842B952B862397230E94AA
:1036D0002E05B8CF823008F4B5CFCBCF262B372BB1
:1036E000C901842B952BF3CFC901842B952B2091F5
:1036F000C0043091C10482279327E9CFD92FDF700E
:10370000662339F08D2F0E9433058C2F0E944E0DB9
:1037100099CF0E943C0D8D2F0E94430593CF823F8D
:1037200079F168F4803FA1F0813F19F1662309F433
:103730003FC02223D1F18C2F0E943B1283CF833FC5
:1037400021F16111F6CF211140C0892F8F71E4CF93
:10375000662369F0223008F075CF292F2F7181E0A0
:1037600090E002C0880F991F2A95E2F7C0CF22305F
:10377000F2CF892F8F71662379F20E94330562CFD1
:10378000892F8F716623C9F3C7CF662359F09F71C4
:1037900021E030E0F90102C0EE0FFF1F9A95E2F739
:1037A000CF0195CF80E090E092CF892F8F71E5CF48
:1037B000222359F2893349F4FFEF27EE43E0F15019
:1037C00020404040E1F700C000008C2F0E944A11C9
:1037D00039CFAEE0B0E0EFEEFBE10C94492C8C0168
:1037E000E62EFF24F394FC01F386C580D6800E9468
:1037F00051101E86C886D9869B878A87FC86FD86DF
:10380000CE0108960E946018EE2081F0F801D58064
:10381000E6800E9451101F821E82D982EA829C8318
:103820008B83FD82CE0101960E946018F8011386F9
:103830002E96E8E00C94652CCF93DF93D42FC52F00
:1038400064E0842F952F0E94271460E08D2F9C2F19
:103850000E94E91B60E070E0CB01DF91CF910895F9
:103860001F93CF93DF93EA011091D70560E0888121
:1038700099810E941A05882349F18A81811731F1C3
:103880008093D7050E94E90C61E0888199810E94AC
:103890008A138091D70518278A8118271093D70596
:1038A0008B810E94C8050E94E90C1A821B8260E08D
:1038B000CE010E94E91B60E0CE010E94271460E067
:1038C00070E0CB01DF91CF911F91089561E0888175
:1038D00099810E948A13EBCFA7E0B0E0E2E7FCE118
:1038E0000C94482C9C017B018A01FA01C384C1100D
:1038F0001BC09285933009F4BBC080F44081518194
:103900009130A9F0923009F469C04217530761F46D
:10391000FB018581882341F061E05CC0943009F4AB
:10392000F0C0953009F4FCC0CC24C3943CC0FB012A
:1039300085814217530709F042C08111F5CF62E03B
:10394000C8010E94271461E0F801808191810E94E2
:103950001A05811128C0F090D70560E0F801808138
:1039600091810E941A05882319F1F80182818F152F
:10397000F9F08093D7050E94E90C61E0F80180819D
:1039800091810E948A138091D705F826F8018281DF
:10399000F826F092D70583810E94C8050E94E90CA1
:1039A000F801128213828C2D2796E9E00C94642C86
:1039B00061E0F801808191810E948A13F4CF88230D
:1039C00009F4B2CF80819181F80196838583308795
:1039D000278363E0C8010E942714E5CFFB0185819E
:1039E0004217530741F4882309F49ECFF8018481DC
:1039F0008F5F848391CF882309F496CF61E0CA0159
:103A00000E941A05882341F1F090D70560E0F80183
:103A1000808191810E941A05882319F1F801828121
:103A20008F15F9F08093D7050E94E90C61E0F80149
:103A3000808191810E948A138091D705F826F80130
:103A40008281F826F092D70583810E94C8050E94E2
:103A5000E90CF8011282138260E0C8010E94271469
:103A600063CF61E0F801808191810E948A13F4CFD5
:103A7000808191818217930731F4FB01858165E094
:103A8000811152CFA7CF9681FB018181981315C078
:103A9000FA019581FB01808198130FC025812111C6
:103AA00009C064E0CA010E94271461E0C8010E94B5
:103AB000E91B79CF981709F437CFF701858188235F
:103AC00009F432CF64E0C8010E94271460E0C80105
:103AD0000E94E91BDD24D394F801D386F701B0805E
:103AE000F1800E9451101F82B982FA829C838B83DD
:103AF000DD82DE82CE0101960E946018F8011386F5
:103B000052CF808191818217930709F00DCFFB017D
:103B1000258163E0211108CF0E948A1360E05ACF0B
:103B20008081918182179307E1F5FB012581222392
:103B300009F4FACEF090D70560E00E941A058823B8
:103B400049F1F80182818F1529F18093D7050E94F0
:103B5000E90C61E0F801808191810E948A138091D3
:103B6000D705F826F8018281F826F092D7058381DF
:103B70000E94C8050E94E90CF8011282138260E0DD
:103B8000C8010E94E91B61E0C8010E942714F801E6
:103B9000148209CF61E0F801808191810E948A132B
:103BA000EECF3681FB012181321318C0FA01358135
:103BB000FB012081321312C0458141110CC062E02B
:103BC0000E948A1361E0C8010E94E91B63E0F801CA
:103BD00080819181A1CF321709F4A6CEF70125810A
:103BE000222309F4A1CED090D70560E00E941A05E7
:103BF0008823C1F1F80182818D15A1F18093D70549
:103C00000E94E90C61E0F801808191810E948A1391
:103C10008091D705D826F8018281D826D092D70581
:103C200083810E94C8050E94E90CF8011282138268
:103C300060E0C8010E94E91B60E0C8010E942714EF
:103C4000F701008111810E9451101F8209831A839C
:103C50009C838B8381E08D838E83CE0101960E94AD
:103C60006018A1CE61E0F801808191810E948A13E1
:103C7000DFCF80910305803178F48091020588239D
:103C800059F0E091C4042091C3043091FE044091A6
:103C9000FD0457E02E1301C008956E2F70E05E9F63
:103CA000F0011124DF01AB53BB4F14968C91149794
:103CB000882361F111968C911197831327C08C9101
:103CC000841324C015968C91159781111FC01296EC
:103CD0008D919C91A091FF04B09100058A1B9B0BD4
:103CE000883C910598F4809103058F7080618093E2
:103CF0000305E553FB4F80818F70806180838DEFDA
:103D000094E00E9460180E94BE050895FB01319660
:103D1000E770C0CFADE0B0E0E0E9FEE10C94442CE8
:103D20008C0186E0F801DE01189601900D928A95CB
:103D3000E1F7F801E080F580A280B380C4808DEFC8
:103D4000882E84E0982E70900105711020C0CC2040
:103D5000D9F0FF2009F419C1C8010E945A0888232C
:103D600009F413C187E0F801D40101900D928A95FE
:103D7000E1F7F1E0CF1206C08091FD049091FE04BE
:103D80000E944B080E94391EFF24F39451C0D0902A
:103D900002058091FF04909100059501281B390BC5
:103DA000DD2009F4BAC0283C310508F090C0CC20D1
:103DB00059F39091FE04C18080910305803108F091
:103DC00058C0C91214C09091FD049E1110C0F1108A
:103DD0004AC08F708061809303058DEF94E00E944C
:103DE000601880910305F8018683F12C21C0F11041
:103DF0003AC040E06C2D8E2D0E94260C40E06C2DC8
:103E00008E2D0E94260CF82E8111EFCF8885998582
:103E10000E944B08292F22952F70903470F49F70C8
:103E20002230A0F09923B1F0F8019681903190F4FE
:103E30008F2D2D96EDE00C94602C2A5F2F70223090
:103E400068F0C8010E946018FD2CF2CF992311F090
:103E5000882371F3805E883058F3F3CF803F40F3BE
:103E6000815F8230F9CF80910305816080930305E3
:103E7000BCCFC91207C09091FD049E1103C0FF2062
:103E800009F46CC0C8010E945A08882309F47DC057
:103E9000FF2009F47AC080910305803278F02091E8
:103EA000FD043091FE043A832983BC82AB827D827B
:103EB0001E828F83CE0101960E94601887E0F80170
:103EC000ADEFB4E001900D928A95E1F75BCF809160
:103ED0000305803150F48DEF94E00E94601887E074
:103EE000F40111928A95E9F780CFCC2009F44CCFE8
:103EF0002091FE0491812913C5CF9091FD049E115C
:103F0000C1CFF110BFCF8683C8010E94601887E03F
:103F1000F40111928A95E9F737CF283C3105F8F67C
:103F2000CC2009F431CFFF2081F19091FE048181F2
:103F3000981321C08091FD048E111DC0809103054E
:103F400080FD10C0803170F08683807F803F39F023
:103F50008681982F907F905F8F70892B8683C80110
:103F60000E94601887E0F801ADEFB4E001900D9277
:103F70008A95E1F709CFC8010E945A0881119ECFA6
:103F800080910305816080930305C8010E94601839
:103F9000FBCEABE1B0E0EFECFFE10C944E2C4E8B8E
:103FA0005F8B688F798F8A8F9B8F91111092C204DB
:103FB0001D8A86E0FE017696DE011F9601900D9225
:103FC0008A95E1F78B89882329F061E0CE010F966D
:103FD0000E942B0887E0FE013F96DE0118960190B3
:103FE0000D928A95E1F7CE0108960E948A1E8111F2
:103FF0002BC087E0FE013896DE01119601900D92EC
:104000008A95E1F72091C3044091C4048C858823EC
:10401000D9F030E0C90101968770992750E08417E4
:104020009507E9F097E0929FD001939FB00D11247E
:10403000AB53BB4FFE01319601900D929A95E1F77B
:104040008093C3040E94BE0517E08091C404909140
:10405000C304891312C06B96E3E00C946A2C0E948F
:104060007D111092C3041092C40487E0EDEFF4E0D8
:10407000DF011D928A95E9F7E7CF189FC00111244F
:104080008B539B4F0E948A1E882329F38091C4047E
:1040900090E00196877099278093C404D6CFA6E05C
:1040A000B0E0E5E5F0E20C944D2C0E9451108C013B
:1040B00080916504909166048017910779F01982C8
:1040C0001A820E945110BC0149815A8180E090E01F
:1040D0000E94C91F10936604009365042696E4E0CD
:1040E0000C94692CA0E1B0E0E8E7F0E20C94442CD9
:1040F0001A821982FE01339686E0DF011D928A95AD
:10410000E9F78CE3A82E81E0B82E8E010F5F1F4FD8
:104110004801EE24E394F12C26E4C22E21E0D22EB5
:10412000F50181915F018F3F09F441C0F894E82FB8
:10413000E295EF70F0E021A18F70A70102C0440F5B
:10414000551F8A95E2F7CA01922F982B91A392A14D
:104150008095892382A3789400C0E0E4F1E031E007
:10416000712C21912F3F09F48EC0A22FA295AF7020
:10417000A05EB0E08C9190E02F7002C0959587957D
:104180002A95E2F7817081117EC0832F782A330F40
:10419000CE16DF0631F7F501319780818F3F11F0A0
:1041A0000E94820850EA5A95F1F7D8017C920F5F7D
:1041B0001F4FB0E4AB16B1E0BB0609F0B1CF48E049
:1041C00050E0B40181EE91E00E94C72C0091EA0119
:1041D00010E002511E4F892B09F457C088E0F4010A
:1041E000A1EEB1E001900D928A95E1F781E0809314
:1041F000BD010E9451109093BC018093BB0180913E
:104200005F04882309F49AC01A8619861C861B86C7
:104210008091C6018A3008F05AC07E01E9E0EE0EB6
:10422000F11C44E25EE0B701C8010E94AF0C6701D7
:10423000882309F471C049EC5EE0B701C8010E940F
:10424000AF0C882309F468C04DEC5DE0B701C801EC
:104250000E94AF0C882309F45FC01092C6018091C0
:10426000E90190E044E050E0B60182519E4F0E9487
:10427000C72C21E02093BA01892B09F03FC060963A
:10428000EDE00C94602C80E081CF8091BD0188230B
:1042900009F4B5CF8091BB019091BC010E94F01749
:1042A000059708F4ACCF44E050E061EE71E0C8013E
:1042B0000E94C72C892B41F084E0E1EEF1E0D801A7
:1042C00001900D928A95E1F71092BD0198CF8091EF
:1042D000B8019091B9010E94F017843F914008F015
:1042E0009CCF8091BA01882351F2FE01399684E077
:1042F000DF011D928A95E9F71092BA01E091E90178
:10430000F0E0E251FE4F89859A85AB85BC858083BC
:104310009183A283B383B3CF8091C6018F3F39F4D9
:104320000E9451109093B9018093B801DACF8F5F4A
:104330008093C6018A3008F492CFF2CFE090E90171
:10434000F12CF701E251FE4F7F01F801808191814C
:10435000A281B38180934B0490934C04A0934D04AD
:10436000B0934E048BE494E00E947B0B80934A044C
:1043700080914F0490915004A0915104B091520447
:10438000F70180839183A283B383C0905304D090BC
:104390005404E0905504F09056048091B40190913B
:1043A000B501A091B601B091B701C816D906EA06C9
:1043B000FB0609F464CFC092B401D092B501E0923B
:1043C000B601F092B7010E94EB09C61AD70AE80AB3
:1043D000F90AC0926104D0926204E0926304F09200
:1043E00064044DCFCDB7DEB760970FB6F894DEBF4B
:1043F0000FBECDBF85B7806885BF85B7806885BF94
:1044000084B7877F84BF0FB6F894A8958091600029
:10441000886180936000109260000FBE80E890E099
:104420000FB6F89480936100909361000FBE80E80E
:1044300098E090938B0180938A010E945C0B0E940C
:10444000CB0B8091E20084608093E20078948091AD
:10445000ED01882399F08091E9001091EC00179507
:10446000112717958F70182B1092E9008091E800A2
:1044700083FD0E943F151F701093E90082E084BD08
:1044800093E095BD9AEF97BD80936E001092610402
:1044900010926204109263041092640488EC90E01D
:1044A0002091E30027FDE8C4AFE3BCE91197F1F7E1
:1044B00000C000000197009799F70E945C0B1092D2
:1044C000ED0110925F041092600410920001DDC4AF
:1044D00083E090E00E94DD2C90E00E94290580910D
:1044E0005F048127880F8093290480E8809301026C
:1044F0000E944C296BE070E082E797E00E94180F61
:10450000882309F443C08091290465E070E081FDAF
:1045100096C18DE697E00E94180F8823B9F16DE0EF
:1045200070E08BE597E00E94180F882379F10E94D4
:10453000EB096F83788789879A87DC01CB01805AE2
:104540009541AF4FBF4F80932D0490932E04A093BD
:104550002F04B0933004E9E2F2E080E092E0DF0162
:104560009C011D9221503040E1F7F0930002E0934E
:10457000FF018FEF9FEF90932C0480932B0481E039
:10458000809334048093310410922A0480915F0454
:10459000811102C00E94CB2A81E091E090938804AF
:1045A00080938704CE0101963AE0C32ED12CE12CF2
:1045B000F12C8F87988B8091ED01853049F48091A3
:1045C000ED01853009F43EC10E947D110E942D0944
:1045D0000E94722007EF11E02EEEA22E21E0B22EF3
:1045E000D501F80191918D9121E0EF3FF20709F497
:1045F00060C19817B9F340905F04912C3324339431
:10460000D5018D905D01F80151908F01581439F159
:104610005824712C66246394862D85218823B9F053
:104620004420A9F079829A820E9451109C838B8346
:104630003D8291E0862D8821811101C090E09E830A
:1046400049815A816B817C818D810E94C91F73943D
:10465000660CF6E07F12E0CFF801319780829394E8
:1046600098E0592E9510CCCF0E94080A10915F0453
:10467000B0903404B11029C10E94370F86E0E0EBFE
:10468000F4E0AF85B88901900D928A95E1F78090AA
:10469000B1040091B2041091B304A090B404B0909E
:1046A000B5041092B2041092B3041092B4041092A4
:1046B000B504812F802B882399F080913704909145
:1046C00038040E94F0179C018091AE04882309F4FD
:1046D000A3C24091380150E04217530708F4AAC220
:1046E0008A2D8B29882379F08091350490913604A6
:1046F0000E94F0179C018091AD048111D2C22B3031
:10470000310508F0D4C28091B104881116C080919F
:10471000B204882311F0801310C09091B304992340
:1047200011F091130AC02091B504211106C0209107
:10473000B404211102C0892B81110E945D1086E012
:10474000EF85F889A0EBB4E001900D928A95E1F72E
:104750000E942D0990913904891721F08093390422
:104760000E94EB090E94EB092B013C0180913A0465
:1047700090913B04A0913C04B0913D04A3019201AF
:10478000281B390B4A0B5B0B121613061406150671
:104790000CF011CF40923A0450923B0460923C04DA
:1047A00070923D0404E015E08EE5A82E85E0B82E59
:1047B000D8019C909920E1F111962D913D914D9158
:1047C0005C9114972F83388749875A87DA01C9018A
:1047D00084199509A609B709181619061A061B06A1
:1047E0003CF1F801478150850580F681E02D6F810D
:1047F000788589859A850995462F572FBC01D80160
:104800008C91981215C0411551056105710509F487
:1048100086C211968D919D910D90BC91A02D840F13
:10482000951FA61FB71FF80181839283A383B483CA
:10483000075F1F4FA016B10609F0BACFBCCE88E6BD
:1048400097E069CE8091ED01843031F10E94250F0F
:104850001092EB0148E150E080E40FB6F894A8957F
:10486000409360000FBE8093600083B7817F8460B7
:1048700083BF83B7816083BF7894889583B78E7F29
:1048800083BF0FB6F894A8958091600088618093EB
:104890006000109260000FBE0E947220EEEEF1E008
:1048A0008191811147C2A6EFB1E0AE17BF07C1F7F2
:1048B00086CE9813A0CE0E944F2080913404882386
:1048C00009F4DCCE10915F04B12C809132049091F8
:1048D00033040E94F017C29708F48DC20E94511051
:1048E000909333048093320489E292E09093000223
:1048F0008093FF01112309F4C8C086EE97E00E945F
:1049000016102091C0043091C104832F992700977D
:1049100009F19C0188E0A90104E0569547950A95A4
:10492000E1F74115510511F08C5F9A01A9015695E7
:10493000479556954795452B79F08E5FB3E03695B0
:104940002795BA95E1F7232B91F08230A9F085ECF9
:1049500097E012C280E0DFCF36952795232B09F42C
:1049600006C28F5F833098F788ED97E005C28230EA
:1049700071F782ED97E000C28BEC97E0FDC1909358
:104980000C0180930B0120E2209308029C0140E07F
:1049900050E02F83388749875A8710920702F7E043
:1049A0008F2EF2E09F2ECA01B901A70196010E9445
:1049B000962C6B877C878D879E878B85805D4B844B
:1049C0005C846D847E8400E010E0452846284728FA
:1049D00061F5E6E08E2EE2E09E2E809306022F83A4
:1049E000388749875A876F81788589859A85A70195
:1049F00096010E94962C6B877C878D879E878B857E
:104A0000805D2B853C854D855E8501E010E0232B84
:104A1000242B252B51F480E24F80588469847A84BA
:104A200045284628472809F080E3D4018E934D019C
:104A30006F81788589859A85A70196010E94962CB9
:104A40002F83388749875A870F5F1F4F053011051D
:104A500009F4B7C1CA01B901A70196010E94962CB9
:104A60006B877C878D879E878B85805D4B845C847C
:104A70006D847E844114510461047104CBCFD8014C
:104A80008D918D010E94640FAAC18DE797E00E946D
:104A90001610B1C18F5F082F10E02B01082E02C045
:104AA000440C551C0A94E2F7A20142235323452BE0
:104AB00089F39091290490FD43C09801369527957C
:104AC00036952795922F8295880F80763FE1380F93
:104AD00080930F01209312013093100190931301E2
:104AE00024E630E047E050E06DE071E088E70E94A6
:104AF0008229892B09F09AC1A80165E0440F551F4E
:104B00006A95E1F78091290480FD22C0475D5D4FE1
:104B100004E610E020E230E060E488E70E941A2A10
:104B2000892B09F083C14094509480912B0490917B
:104B30002C048421952190932C0480932B0476C11E
:104B4000880F880F880F37E0380F20E093E0C0CF40
:104B5000E9E0F2E080E2DF011D928A95E9F7EAE4FC
:104B6000F1E0FC87EB8766E471E03EE4832E31E000
:104B7000932EEB85FC85A191FC87EB87FB0181914E
:104B8000BF01840F952F911D9C01275D3D4F3887F4
:104B90002F83EA2FF0E0E75FFD4F80E090E027E011
:104BA000622E681AAA24A394082E01C0AA0C0A94A3
:104BB000EAF72F80388400E0D1011D911D011A21F0
:104BC000262D201B277030E0B12F022E01C0BB0F15
:104BD0000A94EAF73195219531092770332701C0EE
:104BE00016952A95EAF71B2B2081122B10830F5F55
:104BF000083011F7019631968830910581F6EB85E2
:104C0000FC858E169F0609F0B4CF04E610E020E282
:104C100030E049E052E080CF409139019AE0499F6D
:104C2000A00111244217530708F05ACD8F5F8093DB
:104C3000AE0402C08F3FD1F7002359F00E94A908AB
:104C40009FEF10160CF491E0899F802D1124809322
:104C5000B204112359F00E94A90891E011160CF03A
:104C60009FEF899F802D11248093B3048091B2041B
:104C7000882309F435CD9090B304992009F430CD00
:104C80000E949B08811101C081E08093B204892DAC
:104C90000E949B08882319F08093B30421CD81E002
:104CA000FBCF2135310508F42ECD8F3F19F08F5FF2
:104CB0008093AD04AA2059F00E94F1089FEF1A14C6
:104CC0000CF491E0899F802D11248093B404BB20C3
:104CD00059F00E94F10891E01B140CF09FEF899F9E
:104CE000802D11248093B5048091B404882309F4A5
:104CF0000ACDB090B504BB2009F405CD0E949B08F5
:104D0000811101C081E08093B4048B2D0E949B0827
:104D1000882319F08093B504F6CC81E0FBCF1C9278
:104D2000F801118212821382148216821582108673
:104D300017827ECD8091EC01882309F440CCB0E14C
:104D4000B9BDE2E1E9BD09B400FEFDCF8091D80014
:104D50008F7D8093D8008091E00082608093E00096
:104D60008091E00081FDFCCF0E947D1128CC833032
:104D700008F0EDCD8EED97E00E9424108091B904EB
:104D8000805D0E94640F83EC97E00E941610809172
:104D9000B804805D0E94640F8FEB97E00E941610AC
:104DA0008091B6049091B70420910B0130910C01D1
:104DB0008217930709F0E3CD20910802203209F011
:104DC000DECDE2E0F2E08F0181918032E1F3F80183
:104DD00001900020E9F79F01215031094901081590
:104DE000190508F44CCE8DEB97E00E9416108091C7
:104DF0003B010E94640F80912B0490912C04892B1D
:104E0000A9F080913404882389F080912A048111CB
:104E10000DC00E94370F20912B0430912C0480E0AC
:104E200061E070E02115310509F035CE8091310443
:104E30008823F9F00E94EB096F83788789879A8726
:104E400080912D0490912E04A0912F04B0913004F4
:104E50004F80588469847A84481A590A6A0A7B0AFE
:104E60002FEF4216520662062FE7720610F40E94D8
:104E7000250FB11001CC02CC81E080935F048093B8
:104E80006004809300010E94C82A809100018091F3
:104E9000000191E08927880F880F8093EA0194E050
:104EA000981B9093E90184E90E94820886E60E949B
:104EB000820887E90E94820886EC0E94820800E44A
:104EC00011E0F80181918F018F3F11F00E9482085B
:104ED000F1E006341F07A9F788E0EEEEF1E0DF010C
:104EE000482E1D924A94E9F7E1EEF1E0DF011D92B0
:104EF0008A95E9F780E090E00E94E52C853E9E4F80
:104F000011F00E94620D82E090E00E94DD2C8093FF
:104F1000F60184E090E00E94E52C9093BC0480931D
:104F2000BB040E947220EFEFF6E721E0E150F04071
:104F30002040E1F700C000000E947220E091600470
:104F400011E0E127EE0FEE0FF0E0E251FE4F80811D
:104F500081FFBECA6FEF7FEF80E090E00E94192DC5
:104F60000E949F0A78941F921FB61F9211248F935C
:104F70009F93AF93BF938091460490914704A09173
:104F80004804B09149040196A11DB11D80934604C7
:104F900090934704A0934804B0934904BF91AF9104
:104FA0009F918F911F901FBE1F9018951F920F9277
:104FB0000FB60F9211242F933F934F935F936F93EC
:104FC0007F938F939F93AF93BF93EF93FF938091C2
:104FD000E10082FF09C08091E20082FF05C080915C
:104FE000E1008B7F8093E1008091DA0080FF24C094
:104FF0008091D80080FF20C08091DA008E7F80935E
:10500000DA008091D90080FF9BC080E189BD82E1F8
:1050100089BD09B400FEFDCF81E08093ED01809150
:10502000CA01811109C00E945C0B0E94CB0B8091C8
:10503000E20084608093E2008091E10080FF17C06D
:105040008091E20080FF13C08091E2008E7F809308
:10505000E2008091E20080618093E2008091D800BC
:1050600080628093D80019BC85E08093ED01809127
:10507000E10084FF29C08091E20084FF25C080E127
:1050800089BD82E189BD09B400FEFDCF8091D800C1
:105090008F7D8093D8008091E1008F7E8093E10026
:1050A0008091E2008F7E8093E2008091E200816037
:1050B0008093E2008091C901882309F447C084E00D
:1050C0008093ED018091ED018091E10083FF27C085
:1050D0008091E20083FF23C08091E100877F80936D
:1050E000E10082E08093ED011092C9018091E1001E
:1050F0008E7F8093E1008091E2008E7F8093E200BA
:105100008091E20080618093E20042E060E080E014
:105110000E94940B8091F00088608093F000FF91D2
:10512000EF91BF91AF919F918F917F916F915F911F
:105130004F913F912F910F900FBE0F901F90189598
:1051400019BC1092ED011092CA0176CF8091E30054
:1051500087FF02C083E0B4CF81E0B2CF1F920F92ED
:105160000FB60F921124FF920F931F932F933F932B
:105170004F935F936F937F938F939F93AF93BF935F
:10518000CF93DF93EF93FF9309EE10E0F801808156
:10519000C091EC00C795CC27C7958F70FC2EF82ADC
:1051A0001082C0EFD0E08881877F888378940E9446
:1051B0003F15F8011082888188608883CF2DCF70D9
:1051C000C083FF91EF91DF91CF91BF91AF919F91FC
:1051D0008F917F916F915F914F913F912F911F918F
:1051E0000F91FF900F900FBE0F901F901895FF9298
:1051F0000F931F93CF93DF93182FEB011092BC00F6
:1052000084EA8093BC000E945110082FF92E8091EF
:10521000BC0087FF28C08091B900887F883029F0C2
:105220008091B900887F8031A1F51093BB0084E89C
:105230008093BC000E945110182F092F8091BC0050
:1052400087FF1FC02091B900287F80E090E02831BF
:1052500099F081E090E0203411F480E090E09195A5
:105260008195910909C0802F9F2D0E94F017C817C2
:10527000D90768F68EEF9FEFCDB7DEB7E5E00C9467
:10528000682C812F902F0E94F017C817D907B0F60D
:10529000F1CF8FEF9FEFF0CF1092B9008CE08093A9
:1052A000B80008950F931F93CF93DF93EB01809382
:1052B000BB0084E88093BC000E945110182F092F76
:1052C0008091BC0087FF11C02091B900287F81E048
:1052D00090E0283211F480E090E091958195910959
:1052E000DF91CF911F910F910895CF3FDC0741F3DC
:1052F000812F902F0E94F017C817D90708F78EEF5B
:105300009FEFEECFA0E0B0E0E8E8F9E20C94442C87
:10531000782E5B016A0189010E9451104C01043111
:10532000110560F10F3F100769F1C80164E170E0F9
:105330000E942B2CF62EE72E6F2D7E2D872D0E949E
:10534000F728EC0197FF09C00F3F1007A9F3C4012C
:105350000E94F0170817190778F77501CA0CDB1CB3
:10536000EC14FD0411F0D7FF10C084E98093BC0059
:10537000CE01CDB7DEB7EDE00C94602CFF24F394A2
:10538000E12CDACF85E0F82EFBCFB801F70181914F
:105390007F010E945229EC01E3CFA0E0B0E0E3EDF1
:1053A000F9E20C94442C782E5B016A0189010E9479
:1053B00051104C010431110560F10F3F100769F1E4
:1053C000C80164E170E00E942B2CF62EE72E6F2DB1
:1053D0007E2D872D0E94F728EC0197FF09C00F3F13
:1053E0001007A9F3C4010E94F0170817190778F7EE
:1053F0007501CA0CDB1CEC14FD0411F0D7FF10C0C2
:1054000084E98093BC00CE01CDB7DEB7EDE00C940B
:10541000602CFF24F394E12CDACF85E0F82EFBCF4B
:10542000F7018491B8010E945229EC01FFEFEF1AB5
:10543000FF0AE1CFA0E0B0E0E0E2FAE20C94432CF6
:10544000682E962E5A01690178010E945110782E1B
:10545000892E0431110530F10F3F100731F1C801D9
:1054600064E170E00E942B2C162F072F612F702F04
:10547000862D0E94F728EC0197FF19C0FFEFEF1669
:10548000FF06A1F3872D982D0E94F017E816F90664
:1054900068F784E98093BC00CE01CDB7DEB7EEE0BB
:1054A0000C945F2C11E000E0E1CF15E0FCCFB701D8
:1054B000892D0E945229EC018501CA0CDB1C0C15B8
:1054C0001D0539F3D7FDE5CFB701F80181918F01B3
:1054D0000E945229EC01F3CF8EE14A9B03C0815018
:1054E0008111FBCF4A9BFECF08955A9880E28A959E
:1054F000F1F75A9A0895FC013BE03A95F1F798E0EC
:1055000020E080E031E040E14A95F1F7880F4A9BC6
:1055100002C08160232742E04A95F1F7000040E194
:105520004A95F1F791509111EECF90E19A95F1F7EC
:1055300099B132E03A95F1F7000040E14A95F1F770
:1055400092FB992790F992272081920F90830895DA
:10555000A1E0B0E0EEEAFAE20C944B2C19828C0147
:105560007C01E60EF11C0E151F0541F481E09981C6
:10557000911180E02196E6E00C94672C0E946C2A41
:10558000CE0101960E947B2AF80181938F01EBCF17
:10559000529A5A9A089552985A9AEA9AE9E6F0E08D
:1055A00080818F7C808308956150770B91E001C0EA
:1055B000990F6A95EAF7692F90E021E0611108C020
:1055C000992399F05A9A80E28A95F1F75A980895AA
:1055D000362F3823332339F05A9A922730E23A95FE
:1055E000F1F76695EBCF5A98F9CF5A98ECCFFF9226
:1055F0000F931F93CF93DF93EC018C01060F111DC6
:10560000C017D10729F4CDB7DEB7E5E00C94682CBC
:10561000F9900E94752A68E08F2D0E94D42AF0CF5D
:105620001F920F920FB60F9211240F931F932F9377
:105630003F934F935F936F937F938F939F93AF931A
:10564000BF93EF93FF93CF93DF930F92CDB7DEB766
:1056500019820E946C2ACE0101960E947B2A082F93
:10566000069506950695982F92959570202F257092
:10567000920F292F237096959695920F98279770E1
:105680008981892B81115CC0053008F059C080E107
:105690008A95F1F75A9A529A82E08A95F1F700C0FA
:1056A0005A9888E0089F80011124D801AC5EBE4F53
:1056B0001696ED91FC9117973097A9F060914E01E5
:1056C00070914F0114962D913C911597260F371F1D
:1056D00011968D919C911297680F791F13964C919A
:1056E00013978C910995F801EC5EFE4F6381662358
:1056F00051F020914E0130914F0184819581820FAC
:10570000931F0E94F72A0E94752A80E18A95F1F77B
:105710005A9852985A9A80E18A95F1F7F801EC5E0E
:10572000FE4F6081662351F020914E0130914F0170
:1057300081819281820F931F0E94A82A0E946C2A65
:105740000F90DF91CF91FF91EF91BF91AF919F911A
:105750008F917F916F915F914F913F912F911F9109
:105760000F910F900FBE0F901F9018950F931F93DE
:10577000CF93DF938C0105970CF065C0F894529A93
:105780005A9885E08A95F1F70000C02FC695C5703C
:10579000802F8570C80F8C2F8370C695C69593E0B7
:1057A000000F111F9A95E1F7C80FC8018C2BEC016F
:1057B0000E94752A00C068E08C2F0E94D42A90E1D4
:1057C0009A95F1F752985A9A4A9B35C087E090E033
:1057D0004A9933C0F801EC5EFE4F6381662361F0A5
:1057E00020914E0130914F0184819581820F931F4A
:1057F0000E94A82A882321F10E946C2A80E28A95BF
:10580000F1F75A98529A90E19A95F1F7F801EC5E07
:10581000FE4F6081662351F020914E0130914F017F
:1058200081819281820F931F0E94F72A0E94752A1C
:10583000789481E009C000C0C7CF0197009749F470
:10584000529A5A9A789480E0DF91CF911F910F91EC
:10585000089500C0BDCFAA1BBB1B51E107C0AA1F02
:10586000BB1FA617B70710F0A61BB70B881F991F01
:105870005A95A9F780959095BC01CD0108952F9276
:105880003F924F925F926F927F928F929F92AF92D0
:10589000BF92CF92DF92EF92FF920F931F93CF931D
:1058A000DF93CDB7DEB7CA1BDB0B0FB6F894DEBFB4
:1058B0000FBECDBF09942A88398848885F846E84DA
:1058C0007D848C849B84AA84B984C884DF80EE8024
:1058D000FD800C811B81AA81B981CE0FD11D0FB62D
:1058E000F894DEBF0FBECDBFED010895991B79E09E
:1058F00004C0991F961708F0961B881F7A95C9F760
:105900008095089597FB072E16F4009407D077FD35
:1059100009D00E942B2C07FC05D03EF49095819570
:105920009F4F0895709561957F4F0895A1E21A2EBB
:10593000AA1BBB1BFD010DC0AA1FBB1FEE1FFF1F33
:10594000A217B307E407F50720F0A21BB30BE40B83
:10595000F50B661F771F881F991F1A9469F76095CA
:105960007095809590959B01AC01BD01CF01089584
:10597000EE0FFF1F0590F491E02D0994FB01DC016F
:1059800002C005900D9241505040D8F70895FB0198
:10599000DC0104C08D910190801921F441505040E8
:1059A000C8F7881B990B0895FB01DC0102C0019028
:1059B0000D9241505040D8F70895F999FECF92BD0D
:1059C00081BDF89A992780B50895A8E1B0E042E03A
:1059D00050E00C94212DDC01A40FB51F4150504024
:1059E00048F0CB01840F951F2E910E94FC2C415052
:1059F0005040D0F70895262FF999FECF92BD81BD72
:105A0000F89A019700B4021639F01FBA20BD0FB6FC
:105A1000F894FA9AF99A0FBE08950396272F0E94D8
:105A2000FC2C0E94FB2C252F0E94FC2C242F0C9474
:105A3000FC2C0196272F0E94FC2C0C94FB2CDC01E3
:105A4000CB01FC01F999FECF06C0F2BDE1BDF89A89
:105A5000319600B40D9241505040B8F70895F89433
:105A6000FFCF911099109C10A210B710B710B7106B
:105A7000B710B710B710B710B710A510AA10AE1016
:105A8000B410C510CB10CF10DB11D211E811D0111A
:105A900039123912D01139123912041239120F1277
:105AA0001A123912391239123912D0113912391227
:105AB000D0113912F6113912391237123712371242
:105AC000371237123712371237123712251239129E
:105AD000DB11CE1139123912391239123912391239
